:100000000C94E8080C9415090C9415090C94150926
:100010000C9415090C9415090C9415090C941509E8
:100020000C9415090C9415090C9415090C941509D8
:100030000C944E3F0C9415090C9415090C94150959
:100040000C9415090C94562D0C9415090C94150953
:100050000C9415090C9415090C9415090C941509A8
:100060000C9415090C94253F0C94FB3E0C94150937
:100070000C9415090C9415090C9415090C94150988
:100080000C9415090C9415090C9415090C94150978
:100090000C9415090C9415090C9415090C94150968
:1000A0000C9415090C9415090C9415090C94150958
:1000B0000C9415090C9415090C9415090C94150948
:1000C0000C9415090C9415090C9415090C94150938
:1000D0000C9415090C9415090C9415090C94150928
:1000E0000C9415090C94F51F0C94DE1E0C94D61478
:1000F0000C94AC260C9478300C9442220C94973ECD
:100100000C94693B0C943A1F0C94702B0C94B53BE7
:100110000C94A4250C9420260C94302F0C9480175A
:100120000C94441B0C94C21F0C9494290C94181525
:100130000C94D23A0C9428310C94B6380C942B3091
:100140000C94A6120C94622F0C940E1E0C94BF22D9
:100150000C9403270C94C91C0C94BF1A0C94961F82
:100160000C94831C0C942F1E0C94CF110C94052816
:100170000C944E320C94BE1B0C94F41B0C947A25F8
:100180000C94A12A0C94943E0C9492260C94D52B9A
:100190000C94C9370C94A3240C94EE230C94762071
:1001A0000C9422290C9429120C9421190C944115B9
:1001B0000C944B3B0C94F3240C9474120C947A1D05
:1001C0000C9410380C94403A0C94BB140C94952564
:1001D0000C94B0140C94CB1F0C94E8270C940D29AC
:1001E0000C942D310C94EF3E0C94782B0C946321DD
:1001F0000C94183A0C9497300C9454260C94E727DE
:100200000C94FC220C94D33B0C9437250C9445128F
:100210000C94861E0C944E290C9409310C94802F5A
:100220000C94A1270C9486230C9456360C947114CC
:100230000C94DA2E0C94D8340C9427240C94B33BF1
:100240000C94BC1A0C94771F0C94C2390C94483847
:100250000C94862A0C94F7340C9475170C947C1229
:100260000C942C380C94441C0C94DC1D0C94FA2C2B
:100270000C9472270C94711C0C9481140C94DC3E29
:100280000C94EF250C94A5390C94D9120C94D61F1C
:10029000040000000004040000000004000000004E
:1002A0000000000400000000000400020000040040
:1002B0000400000407040400000404040000020217
:1002C0000000000204070004070704000404000003
:1002D00004000202040404040400000400040404F2
:1002E00004040404000400020304000404000400E5
:1002F00004000004000400000000000000000102EF
:100300000102F4024E2902000100000094290300BA
:1003100001000000943E040001000000973E05002B
:1003200001000000DC3E06010001CB05CF110700F3
:1003300001000000451208010001F3022912090022
:1003400001000000E7270A020101C6050D290B0381
:100350000103F002E8270C020102EE0222290D023D
:100360000002F40228310E020002B2052D310F0303
:100370000003F002D23A10020002EE024B3B1105DC
:100380000005E902693B12020002B205722713015F
:100390000001F302542614020002EE02183A15027C
:1003A0000002B205A53916040004E502403A17051B
:1003B0000005E002C23918010001F30220261908E5
:1003C0000008D802AC261A030003D50292261B02AD
:1003D0000002B2057A1D1C020002EE02441C1D043C
:1003E0000004A005DC1D1E010001F302711C1F08A2
:1003F0000008CD02F41B20020002EE02831C21043F
:100400000003B4057C1222030002B7057114230314
:100410000002B705811424040004AE05D912250199
:100420000001F302741226030003CA02A612270574
:100430000003C702A12A28040003C402782B290361
:100440000002B705862A2A040004AE05D52B2B012D
:100450000001F302702B2C030003C102C21F2D0305
:100460000003B905441B2E060006BB02BE1B2F026B
:100470000002B205EE2330050005B6023A1F310432
:100480000004C005961F32020002B205771F330434
:100490000003B302862334050005AE02272435018C
:1004A0000001F302802F36040003A4052B3037052A
:1004B0000005A902BF2238040004AE05302F39031D
:1004C0000003CA02622F3A030002B70578303B03EB
:1004D0000002B70509313C060006A30297303D0330
:1004E0000002B70510383E030002B7052C383F085C
:1004F00000089B02483840060006A302B6384105B2
:1005000000059602C93742010001F3024115430379
:100510000003F002211944020002B20580174506CB
:1005200000069002D61446030003D50218154701B1
:100530000001F302F73448030003F0025636490283
:100540000002B205D8344A030002B70576204B04F6
:100550000004A005861E4C030003D5022F1E4D018A
:100560000001F302F51F4E030003F00263214F0266
:100570000002B205D61F500001000000EF3E5100FE
:100580000500000028292A2B2C2D2E2F50515253C4
:1005900054555657040000020400020402040007E8
:1005A0000400000404020704000002040402040022
:1005B0000000040404040704070400020404040007
:1005C0000404000404010704000402000000000009
:1005D0000000060002026D4003A4056C1F0794058D
:1005E0006B4003A4056A0B029B056940039D0568E7
:1005F0004003A405671C07A705661404A005654011
:1006000003A405641C07A705631704AE05620A026C
:10061000B205614002B705604003B4055F4002B710
:10062000055E4002B7055D1003B9055C1104BC0509
:100630005B1104C0055A0D02C405590B01CB0558C6
:100640004001C605571204C705560B01CB055510CE
:1006500002CC05541503CE05004002D105530E020D
:10066000D305520901D505510600000078DAB559C5
:10067000796FDBC815FF2AB30282760BD9904851F7
:10068000878BFC61CBDEDD3471E28DE2A640511038
:1006900034399206E6B51CD24717FEEE7D6FDE5C5C
:1006A000A4E46CD0A201027166DE9BE31DBF77F863
:1006B000F7D15D27F22C7EE08D1455294767A35DA5
:1006C0009A9EB13FFFBC5EFFC8A2D3D9E984DD8901
:1006D000B26B452E71F6E32DBBD0C31F59701ACCF7
:1006E0004F83C9743E9906D1683C4AABA248CA0CF4
:1006F00036F97D94E47995262D8F2B914996565D98
:10070000D9BE7D938ECE966338B16DE1A83849EF9E
:1007100019ACC2B4B73E5B7804596608EA4AAA1F0E
:1007200051BE7DD3B1BACBF3B8AB8961E5187EEB8E
:1007300078F36CF7840BDC2375C3651BB722BD9778
:10074000346A9BA494856863732A1325BC5F9F0F4A
:10075000174C739E34B1DC776D563D96A3B3009F62
:10076000566EC50E6EF49487B3C81C216B11D3E787
:10077000E86C113AAA32C9AB5D2C4A7B7B75EDD18E
:1007800059E876D2573614348C9D1CA2892555938E
:10079000BCE96FD69341B4B0C499D88936C9E3AAED
:1007A0006B070C0F49DE711C677C9B74791BDB891E
:1007B00022798AB3AE495AB00075CFA9DB8F833E48
:1007C000DBAAEEED95F60E0FE696789FCD668BE5EB
:1007D000C4103732D66773F391CDEC5764BFE6F699
:1007E0006B61BF789E3C5BA58DCEE64EBA224899E0
:1007F00011FACC4DE74206D9E331CDCC9796A8A8A3
:10080000BB5510D90BC2564E7F2B4B55F2AA164F33
:100810003C1F08304BDA2496E2DF20B37D075ED11F
:10082000C62838CFB0248729517AD78E22BB69FDDC
:10083000581C514AFA0CC6E6F6D02AD9774325C18E
:10084000CC8196664EF0F0DCE1C6E85FAD78E0F171
:100850005EECF6EA85E1D2A7072BDDE5FC505ECC25
:10086000AEC5ED73CD4936BD93AC671C63D64B71F5
:1008700021776FDFFC05A0200C7BBC8FA2DD8318E5
:10088000E2545A2586CEDA64BB5805563DA9B51FF9
:1008900099E6F7F65B64F6F3B94CE3BEA9B0B4C8C9
:1008A000E203EB997827F0BA76CE84C3581B7526FD
:1008B0001AF34980A0881D55974BEE6D1AB887B57D
:1008C0007BDE1415F8697D54A2FEB2275477A9B6D1
:1008D00048BBA4B1B6D13CC5074ECE5A3B8996D78A
:1008E0008A8293853948691B9487132BEC9FF1BB4F
:1008F0000EECB9AA47672B33825D76CA96493F53FF
:100900004BD6F004F0B6C97883E701F836040681C7
:1009100021786C44CB0F28D06889703A1EF1823759
:100920003B5EA6CF31A2065C02A60841E27D55F0EF
:10093000036C964951FB0EA0C71699FBD80D57774B
:10094000A845CFB5326EC46EC71B7C8444FF40609F
:100950008ADCE12A32C09D92965B0105B3F1682BD7
:1009600000ABC1A56392214B9B942C663CDA813786
:10097000AB7B8290F548D180E668D8D5A805F0C356
:10098000F148035F2CE1BC182CD0E23A7E939CE73F
:10099000C1800C5560C89C3AE6204484A5A2CAC414
:1009A000F639065DDBBD1AAE5C8AE9F00437C05546
:1009B000ED652B62231DF6E9712ECEB9068D091166
:1009C0002AF64EFA48084385632023FC45F5724910
:1009D000B63E0B1C97ACB6ED63D2709F1DFCD3FAEC
:1009E000649698CF633BCD23DA49DBD2F0F9337CB0
:1009F0007EC6CB161ECFAAED160E544E6DE322AC6A
:100A00001B785662B4DA8C426FA5AB33A7694A1ED5
:100A1000F69D774C043A23931844F4E34903A83C29
:100A20001830285BEA1C882DA6966018FDFF4B63E2
:100A30002F9CB16BF47723C86076C0B8E7E9BD9707
:100A40003384F60E8394C1DEA0AE004F86E77BE1CF
:100A50006A6E36E847D3D7A4325FF4E9874299DB60
:100A6000FD0681F755312F070C0762B6271E84B0AB
:100A700057F23DF4518858624B325A44668363A062
:100A8000FDCA1E9E2A7A9AA001040BC090CC53C4C2
:100A90007CA50EE9F8B174CC9E51F999C234322C80
:100AA0008344C1925BED839758628C4CD68751E5A5
:100AB00004C6C661F6CAF9E05700DC8109AB1C0523
:100AC00092F089FE54FC8472C3F38001A890C67F23
:100AD000C32097847B870744EA052AB1B17BF6B22D
:100AE0001C609A1353C99FF41520F65A30100DC19B
:100AF000F394888C3CFE206302A980537BC90B666B
:100B0000F95BE703CEF9179ACE830F6F35B4AB3D8F
:100B100080C4290D9000CDDC833760993B9663E853
:100B2000580859194C2C2A298E6535079BCEF53D5E
:100B30005E7F4708564009D3B7E24EB4EA531D0F13
:100B40003BD112A9546A14636C03C81498685AC73D
:100B50009BAE1C818AA868BD1473990DC15E4006C6
:100B60000ED85227363D512BE4B78189B01B54ADC6
:100B7000B95186E8B2473C004C62E9E85A3F61E26D
:100B800075D5E8684DDEABC6D648F8532D40257EB6
:100B90006EB0B23B0D5EE11301D8502439E6C79E1A
:100BA0000FCC5E4C1286A5EFF9E53ABE3EFF07A6D4
:100BB0005698235EDC6EE29B771F378858505EDFC5
:100BC0005C84E39B8B00FE4F47DE62FBA8162F2759
:100BD000E39B4B5C587FF8B47E1FFFF4F9EA57742F
:100BE0009789FA371E5DAF6F812A690BBE4B826809
:100BF0003E01C29BAFD7745A80C5C6E7ABF5D5BBE3
:100C0000BF5FC55FDF7DBCFCF415D516E0E4E6EA06
:100C1000334CD22D7823921CCFBA82B3AEF02C582D
:100C20007D77FE21BE38BFBDC46DE8A8CD97F32FF8
:100C30009B78737BBDF915563657B8327FC18CAAA5
:100C4000831C4F5521AAD0D799037EAA374C800622
:100C50006C1AC737E793D1D93F27E3E5BFE09A176E
:100C6000F8BDA4EF357E0308A8C1250E20175383D5
:100C70002B1C4099AC063FE160A6F97F5603BDC12D
:100C80002F3888F4067FC3C142F3BC57C7689E0F54
:100C90006A803C2F3D6880145CF528A66118C28DDF
:100CA000C7A3444693D92253E9459BF368320DEE1E
:100CB000E0C19A4B3F4FE90F9F873149A009369019
:100CC0004AC722D34A67CA38B6149CA92E3ECFD150
:100CD000C69F9949333302CC7552B2B26A19183B98
:100CE00043C0608071046C4CD92C7BDC0BF826DB94
:100CF00093AC06EF819308910D6F27B98A6DCD945F
:100D00006DAB868119FCD58C85C4D54CCDAB2949FA
:100D10002E06AC7F6A3120400DB5830B416192B441
:100D2000489DE86B52C54899B32696488A264FF9E4
:100D30003DCDAAD8A1B6869BF29299A2CAF283D1E0
:100D4000ADA919C4EAA4019363BC69AA46A5CE66FD
:100D5000A1E110C264AB5A423F25F0DE8CB51553B9
:100D6000488125BE7270EA07BDA300CB4CCFC4B545
:100D70007028CE51E663A874174A65ED6E0EC8F070
:100D80002A49C1214852F166168BEA819BDB30ACBF
:100D9000EFD1A3DDB2ED06D8FA9F10FF605D279D6D
:100DA000F6FCD0BB00089091D961396566B16C370B
:100DB000B8112C7AF33AB749F7A2D68CB3699F00E1
:100DC00054D0D5EE4D921A0286A297DD78BB60A171
:100DD000709D3CA19D2E8D40A948BF86143DD971C0
:100DE00006D51BC422A330D8F25A48B42609E966B6
:100DF000D6E5583D0233866EA65151193E7FE0A8D4
:100E0000098CDAAF33EC932653C6AEA9B146BD4682
:100E1000F1AB6C86C157B3CDAB474A873E8295276D
:100E20008C9E83EEA55065365800BBA7052C84FD2B
:100E30000551D694345097482D957853373D53E853
:100E400069ADBF6EAA1D08B380AB27F8B62D445D0F
:100E5000B825089BA3E36247EE33D78F426345CFA3
:100E6000826350D4A006B4642C933696E0403AECEA
:100E700051E43904A314F6EBB57328BC3A4E2BA108
:100E80006F706004DB8017920ED5059042145D618F
:100E9000E68C73E0AD4CCB46158FB099F25B854183
:100EA0007E9B73A31DB9AD2AB64DD4EBE865582BD4
:100EB0007FF14D0A450684AA4945ADA52F4A1EC8B3
:100EC0000971587255FBDF96B2AB311673726A85A1
:100ED000A4D8B1FD9AB4E93EAB7624C51FA87C53D3
:100EE0003D63A86ABAF21E364644A056A4372FDDE9
:100EF000025826F908408604A4430F86280FF5B14E
:100F0000D4FA750D1602ACAACC01E31E6083E42E60
:100F100037D0659F4F1534D3C90775820795F819E7
:100F2000FB04E00901F00EF3852D7662E40F949640
:100F3000A836B7C551DDFCCEA8BD22B19E2D01213A
:100F4000C8645258C6254CF000FC5543F3E3F9FA47
:100F50003D75C24C2F48E56928CD3C69309C605EE8
:100F60007A2419411592C163674D2330B913A660E5
:100F700010AD0EBA4F18AE206308A7CB2852D14F40
:100F80000FE62AFCD1601E297B80C17CBE80EFF079
:100F9000E545950C35C005A706BFAE83FD7C522202
:100FA0008896291F54DB27683D47EB6657DDE89A92
:100FB000CC646C5419F8DBDD75CA1F15D7566C2B41
:100FC000FCCD85D7C6C712E00423972DC07BFD1E3C
:100FD000DAF25835B50ADD5F107A1C89575D33B5F2
:100FE000A2DFA3FAF8AA6872B9E9D2F64821A2EA08
:100FF00056917AA1EA28E19C3135551200D4F917AF
:101000005FAA1EA82ADABF756BCDA13F6277FA49A5
:10101000B0726D3C093E69BB72CB95EB82F576DE12
:101020005750D6EE0ECFF09B6C209CA96B2CC5C6FA
:10103000005CAE4C6312CB2A72BD1B8FD43671C8D4
:10104000204E91149B504E206C9850699980947555
:101050005FE1BB8C6C61C9FFCF3606EE6EDA13DF41
:101060007331C4F6A3ED8CFFE966DDB19B4DBC1E68
:1010700098B60373B92E4D550F2E45FB053AD08E09
:10108000DF065E6201E88284E9581D574CE867D3A9
:10109000DFA59BA9CFE115833E03D205C74AF8031C
:1010A000BBF3DB349E019E0461BF66FE23839DA9D2
:1010B0005CBE695572BD9C52662F9D97C9AED03FEC
:1010C000F23772A699AB820725327519A142584DA5
:1010D0000698DB57C45118EA28909276B070308594
:1010E000F3E103B06426109AFAC5B0F3EB34B1957E
:1010F000F9D1C6B88759581C52179BD15F893A1F3E
:10110000D022807CFD776128171F26A7D3E0747258
:10111000320D9727BB64B698DE05778BD1CB7F0065
:1011200061612371B80A0000200023002600290015
:101130002C002F003200000100000301060109010C
:101140000F47004400450080013548004400450039
:1011500020010D88008000810080000E8A00800040
:10116000810020000F8C008000810008000CB3007B
:10117000B000B10080033EB400B000B100200323F2
:101180009800900091008000249A00900091002027
:1011900000259C009000910008003BA800A000A141
:1011A0000080003CAA00A000A10020003DAC00A0EF
:1011B00000A10008005B28012001210180005C2AB9
:1011C000012001210120005D2C01200121010800E6
:1011D00011241FBECFEFD1E2DEBFCDBF00E00CBFB8
:1011E00014BE0FB6F894A895809160008861809332
:1011F0006000109260000FBE12E0A0E0B2E0EAE5ED
:10120000F0E800E00BBF02C007900D92AA32B107D0
:10121000D9F723E0AAE2B2E001C01D92A839B207D3
:10122000E1F70E94872E0C942B400C940000CF9382
:10123000DF93CDB7DEB769970FB6F894DEBF0FBE68
:10124000CDBF0E94742E6B017C019E012F5F3F4F2A
:101250001901AE01475F5F4F5E874D87809126027F
:10126000882309F4F0C50E94742EC61AD70AE80A2A
:10127000F90AF89480912602882351F08FEF809329
:10128000260278940000F894809126028111F9CF0B
:1012900078940E94742EA7019601260F371F481FCD
:1012A000591F2B8B3C8B4D8B5E8B81E080932602EC
:1012B00080914902882309F43EC0109249028FEFC1
:1012C000898361E77CE1C1010E94A3298C01892BFC
:1012D00091F1D80156968C9182FFF3CF0E94742E23
:1012E000F894F80137892689422F4B7F468B7894F2
:1012F0009F938F937F936F931F923F9321701F92C1
:101300002F9389811F928F932BE236E03F932F9387
:101310000E94F3326DB77EB7645F7F4F0FB6F894CB
:101320007EBF0FBE6DBF61E77CE1C1010E94A329B2
:101330008C01892B71F680914A028823F9F0109272
:101340004A028FEF898363E87CE1C1010E94A329EF
:10135000FC01892B99F0958D868D9813F4CFF89424
:10136000858D968D891709F457C6789463E87CE1DA
:10137000C1010E94A329FC01892B69F780914C02CD
:101380008823F9F010924C028FEF898307E116E071
:1013900067E77FE1C1010E94A329009791F0DC017A
:1013A00058962C912F3FA1F7F894FC012685211126
:1013B000F1C4789467E77FE1C1010E94A3290097F7
:1013C00071F780914E028823D9F110924E028FEF6F
:1013D000898302E116E067E274E2C1010E94A32959
:1013E000009771F1DC011E962C911E9723FFF3CF1D
:1013F000F894FC012685277F268778949C01265E39
:101400003F4F3F932F9350968C9186958695869566
:101410001F928F9389811F928F931F930F930E9426
:10142000F332EDB7FEB738960FB6F894FEBF0FBE95
:10143000EDBF67E274E2C1010E94A329009791F613
:1014400080915102882309F446C0109251028FEF17
:10145000898308E016E062E67FE2C1010E94A329C9
:10146000FC01892BC1F1848D80FFF5CFF894948124
:10147000258136814781548965897689A789B08D10
:10148000F18CE28CD38C848D8E7F848F7894DF9264
:10149000EF92FF92BF93AF937F936F935F934F93BE
:1014A0003F932F939F9389811F928F931F930F9345
:1014B0000E94F3322DB73EB7205F3F4F0FB6F8942E
:1014C0003EBF0FBE2DBF62E67FE2C1010E94A3298D
:1014D000FC01892B41F6809146028823B9F11092D4
:1014E00046028FEF8B87AE01455F5F4F2A01F2E026
:1014F000DF2EAEE2EA2EB0ECFB2E60E877E1C2010F
:101500000E94A3298C01892B09F1D80152968C9154
:1015100082FFF3CF80FF87C1C8010E94D63BF8014C
:10152000D28A148AE982FA82910142E060E08485DD
:1015300095850E947713C8010E94711860E877E1D1
:10154000C2010E94A3298C01892BF9F680914502E2
:10155000882309F450C0109245028FEF8B879E01BB
:10156000255F3F4F290168E175E1C2010E94A3296F
:101570005C01892B09F43FC0D50159968C9159978C
:1015800080FFF1CFF894F5016480758086809780A4
:10159000818D8E7F818F789458968C91813009F45B
:1015A00099C308F479C3823009F439C38330D9F67A
:1015B000CB8419821A82910142E061E0F5018489AD
:1015C00095890E94771309811A8110270127102716
:1015D000F02FF670EF2E20E030E0B401A301C5013A
:1015E0000E94A41568E175E1C2010E94A3295C0173
:1015F000892B09F0C1CF809153028823B1F1109259
:1016000053028FEF8B879E01255F3F4F290152E0E8
:10161000D52E6DE2E62E78E0F72E68ED74E3C20178
:101620000E94A3298C01892B01F1D80152968C913B
:1016300082FFF3CF80FFF2C0C8010E94D63BF801C1
:10164000D28AE982FA82910142E060E08485958540
:101650000E947713C8010E947F3568ED74E3C201D0
:101660000E94A3298C01892B01F780914B028823CA
:1016700009F45EC010924B028FEF8B879E01255FAD
:101680003F4F290177247A946FE27EE1C2010E94E4
:10169000A3298C01892B09F44BC0D80150968C9159
:1016A00082FFF2CFF894F80184809580A680B780FD
:1016B000F488108A148A789480859185A285B385F0
:1016C000881A990AAA0ABB0AD801FF2091F05296FB
:1016D0008C91F801E80FF11D758A168A178A8D5FC3
:1016E000F801828B8E3208F093C0FA94D801F11081
:1016F000EECF51968C91882309F432C2813009F4DF
:1017000015C3823009F434C4D80152968C9190E00C
:101710008E970CF4B9CF6B85C8010E94601E6FE2F2
:101720007EE1C2010E94A3298C01892B09F0B5CF6B
:1017300080914D02882309F4C3C010924D028FEFAF
:101740008C8730E3632E42E0742E53E2952E6AE6D6
:10175000C62E74E0872EE0E44E2E66ED7FE1CE01CA
:101760000C960E94A3297C01892B09F4A9C0F701DA
:10177000868982FFF2CF80FF5BC0C7010E94D63B03
:10178000D70156967C92569799821A821C96ED91B3
:10179000FC911D97A10162E080810E94B616C9826A
:1017A0008A82D7011C96ED91FC911D97A10162E000
:1017B00080810E94B616C9824A82D7011C96ED919B
:1017C000FC911D97A10162E080810E94B616BAE3E8
:1017D000BB87D7011C96ED91FC911D97810121E0FB
:1017E000AE01455F5F4F61E080810E942C169982B7
:1017F000B8E0BA83D7011C96ED91FC911D97A10129
:1018000062E080810E94B616C7010E941E21A5CF0A
:101810006B85C8010E94601EFA9468CF6B85C80171
:101820000E949E35FACE6B85C8010E94901865CE45
:101830005C84F7010789D62CD01AAD2CB12C848991
:1018400095898A159B0508F4C4C2B4E7B98310E0F2
:10185000085E1F4F0E0D1F1DD7011C96ED91FC91C8
:101860001D972D2DA10161E080810E942C16F701AA
:101870008789D80ED78A848995898A199B09958B7F
:10188000848B652DC7010E943D21D70154968D910F
:101890009C915597A816B90608F4FCC2F7018689F1
:1018A00081FF5BCFC7010E94D63BD70156968C9132
:1018B00056978B7F56968C93C7010E941E214DCF61
:1018C000A89580917402882329F080E480936000B9
:1018D0001092740210913503112309F46DC0009128
:1018E0002A0200FD12C0153008F466C0B0907502DF
:1018F000CB2C8BEF8B0D8C3308F4D2C2EEE7CE16D7
:1019000009F43FC4016000932A02412F50E06EE7C2
:1019100070E085E792E00E94FC3F009739F00E7F6F
:1019200000932A028557924011E0180F01FD0CC068
:10193000902F926090932A028FE795E09F938F9368
:101940000E94F3320F900F90B12EDD24DA9480E0E4
:10195000EB2CF12C18C090E0402F50E0481B590BA5
:10196000B701680F791F6B587D4F8B589D4F0E94B0
:10197000124010922602802F9FB7F89420913503D1
:10198000121761F09FBF10913503012F0B1919F742
:101990009FB7F894209135031213F4CF00933503C9
:1019A0009FBFF1E0DF1208C08FE795E09F938F9310
:1019B0000E94F3320F900F900E94742E6B017C01F5
:1019C0002B893C894D895E89621B730B840B950BB7
:1019D0008090330290903402A0903502B09036028D
:1019E0003FEF831A930AA30AB30A809233029092BC
:1019F0003402A0923502B092360240902F025090ED
:101A000030026090310270903202460E571E681EFE
:101A1000791E40922F0250923002609231027092F1
:101A200032026115710541E08407910508F010C28A
:101A30009B01AC010E94593FDC01CB0181509F4FBB
:101A4000AF4FBF4F892F9A2FAB2FBB2740912B024F
:101A500050912C0260912D0270912E02840F951FDF
:101A6000A61FB71F84179507A607B70718F48FEFAF
:101A70009FEFDC0180932B0290932C02A0932D0208
:101A8000B0932E02409170025091710260917202E7
:101A9000709173025C546B437B4F2F2DC416D50697
:101AA000E606270B27FDDACBBF93AF939F938F9367
:101AB0007F926F925F924F92BF92AF929F928F925E
:101AC00083E596E09F938F930E94F3326DB77EB7C4
:101AD000625F7F4F0FB6F8947EBF0FBE6DBF8091DF
:101AE000700290917102A0917202B0917302C816B7
:101AF000D906EA06FB0698F480916C0290916D027B
:101B0000A0916E02B0916F020196A11DB11D80934C
:101B10006C0290936D02A0936E02B0936F02C0921C
:101B20007002D0927102E0927202F09273021092EF
:101B30002B0210922C0210922D0210922E02109263
:101B40002F02109230021092310210923202109243
:101B500033021092340210923502109236027ECB7C
:101B600082E389831A820E94742E6B017C019101A9
:101B700042E061E0F801848595850E9477130E9418
:101B8000742EDC01CB018C199D09AE09BF0981328D
:101B90009340A105B10508F0EFC0998197FD4AC1B6
:101BA000C818D908EA08FB08D80153968C918823F5
:101BB000C1F02FEF280F41E050E002C0440F551F45
:101BC0002A95E2F7052E000C660B770BC40ED51E86
:101BD000E61EF71E04C0F694E794D794C7948A953E
:101BE000D2F7BFEFCB16D104E104F10408F086C1AF
:101BF0002A8130E0220F331F892F90E0982F882709
:101C0000990F822B932BF8012289E20FF11DC58ACF
:101C1000868B978B2D5FD80152962C9375CDCB84F4
:101C200081E089831A821B821C82910143E061E07A
:101C3000848995890E94771369817A818B819C813F
:101C40000E948B3FBB27A92F982F872F9C01AD01A6
:101C5000442755272F87388B498B5A8B37E0398398
:101C60001A82910142E061E0D50154968D919C91D8
:101C700055970E9477138A81982F9C7F8F8581705A
:101C8000E92EE82A0F85188929893A89B401A30128
:101C9000C5010E94A41567CCCB8419821A821B82CD
:101CA0001C82910144E061E0F501848995890E94DC
:101CB000771369817A818B819C810E948B3FF62FFB
:101CC000F770EF2E8B019C01B401A301C5010E94A6
:101CD000A41549CC2B852F873CE039831A821B82BF
:101CE0001C82910144E061E0848995890E94771308
:101CF00069817A818B819C810E948B3F6B017C0181
:101D0000BFE0B9831A82910142E061E0F501848964
:101D100095890E947713970186013327CF84EA8043
:101D2000B401A301C5010E94A4151DCC8FE78983CE
:101D30008EEF8A830E94742E6F87788B898B9A8BA3
:101D4000910142E060E0F801848595850E94771357
:101D50000E94742E6B017C01DC01CB012F85388938
:101D600049895A89821B930BA40BB50B813293408E
:101D7000A105B10508F4CFC0D80152968C91F801A5
:101D8000E80FF11D758A92E0968B178A8D5FF80136
:101D9000828BBACC318D308F7894AC01415F5F4F2C
:101DA0005F934F931F922F93FC0187891F928F930C
:101DB00089811F928F931F930F930E94F3322DB747
:101DC0003EB7265F3F4F0FB6F8943EBF0FBE2DBF04
:101DD000DFCAB7016E5E7F4F848595850E94A92E6C
:101DE0009C01ABEABAEA0E94923F96958795969538
:101DF00087959C01220F331F820F931F880F991F15
:101E0000D70155969C938E9354978A159B0508F499
:101E100041CD57960C9119CD2D853E85E217F307DC
:101E200009F0EAC0809590E02A8530E08217930798
:101E300009F413C1D80152968C91F801E80FF11DF5
:101E4000758A93E0A1CFCB8ADC8AED8AFE8A2DCAFF
:101E50006115710550E18507910508F008CE8B01E9
:101E60009C0101501F4F2F4F3F4F5527432F322FBB
:101E7000212F0E94593FDC01CB0140912B02509150
:101E80002C0260912D0270912E02840F951FA61FC7
:101E9000B71FE8CD10922602B1E0B0934D025DCCA1
:101EA000D09076028D2D807F803109F027CD1B15D3
:101EB00008F482CD8B2D90E0FC01EC58FD4F208181
:101EC0002E3709F01BCDFC01EE58FD4F4F01FC01F0
:101ED000ED58FD4F9081D4018C91292F30E079018C
:101EE000F82A6DEF6B0D85E792E00E948A2EE816C6
:101EF000F90609F448C1C090750200CDF801828945
:101F0000E80FF11D758A91E0968B178A8D5FD801D5
:101F100052968C93F9CB80EC89831A82910142E02E
:101F200061E0D8011C968D919C911D970E947713BA
:101F300049812A81942F9227892F82958F70982723
:101F4000892F869586958927982F9695892780FDD4
:101F500098C046FFA6C0F8018289E80FF11D758A76
:101F600025E0268B178A8D5FD80152968C93CCCBB7
:101F7000D8011C96ED91FC911D976480B281BF87BA
:101F800023812F8B40E06B2F722F862D0E945017DC
:101F90000E94742E6B017C0130E1C30ED11CE11C48
:101FA000F11C0E94742E2F2DC616D706E806290BA9
:101FB00027FFF7CFF89441E06F857F89862D0E9437
:101FC00050170E94742E6B017C017894D101EAE0D5
:101FD0001D92EA95E9F7F4E8F98323E22A83910157
:101FE0004AE061E0D8011C968D919C911D970E945A
:101FF0007713FE01339685E09191892728E030E040
:1020000005C0880F2150310909F406CF87FFF9CFA9
:10201000880FBDE18B27F6CF548965899089218986
:10202000328943898F5F858F78946F935F934F9345
:102030003F932F939F9389811F928F9386E296E01F
:102040009F938F930E94F332EDB7FEB73A960FB687
:10205000F894FEBF0FBEEDBF76C9898584FF18C016
:102060008B8187FD60C0D80152968C91F801E80FF2
:10207000F11D758AB4E0B68B178A8D5FF801828BEB
:1020800043CBF8018289E80FF11D758A93E03CCFBC
:10209000D80152968C91F801E80FF11D758AB5E0D0
:1020A000EACFC818D908EA08FB08F80133893323B6
:1020B000C9F08FEF830F61E070E002C0660F771FF9
:1020C0008A95E2F7CB01092E000CAA0BBB0BC80EB8
:1020D000D91EEA1EFB1E04C0F694E794D794C79459
:1020E0003A95D2F77FEFC716D104E104F10408F066
:1020F0003FC0842F90E0AC01542F4427550F550F5B
:10210000F4E02F9FC0011124842B952BD801529607
:102110002C91F801E20FF11DC58A868B978B2D5FFC
:10212000F801228BF1CAC818D908EA08FB08F1E5C2
:10213000CF16F5E5DF06E104F104D0F42C8130E0A0
:10214000220F331F90E0982F8827990F822B932B13
:10215000D80152963C91F801E30FF11D2F8126958D
:102160002F73258B868B978B3D5FF801328BCCCA02
:10217000D80152968C91F801E80FF11D758A91E013
:1021800003CE11E0E1CB802F8D7F80932A028091D6
:102190000902D81202C181E08D0D8F708061809399
:1021A0000902B7E78B16B2E09B0609F008F4BEC03F
:1021B000E7E7F2E0B98ECDB6DEB68F010F5F1F4FB5
:1021C0002081222309F4E6C0EEE7F5E08491281788
:1021D00008F0E0C030E0220F331F220F331F220F20
:1021E000331FF901E950FD4FE4914DB75EB764E04C
:1021F000E69F4019510911240FB6F8945EBF0FBE37
:102200004DBF8DB79EB70196F901E750FD4F449140
:10221000F901E650FD4F65917491FB01640F711D4A
:10222000AC01D88ACF86988F8F8B6E177F0709F401
:1022300082C08016910608F46EC0A491A53028F1E2
:10224000A73009F068C02801BFEF4B1A5B0AD8011C
:10225000AC9082010A0D111D8016910608F45BC036
:10226000B12CC12CD12CDA01AD92BD92CD92DC9271
:102270001397612C712C14964D925D926D927C9205
:102280001797485F5F4F3196D0CF7A0184E0E80E10
:10229000F11C68019FEFC91AD90AD8011C91912F2E
:1022A0009F77492E512C612C712C012F007600361E
:1022B000A9F117FF3EC086010F5F1F4FD80111978C
:1022C0008C91440C551C661C771C440C551C661CD8
:1022D000771C440C551C661C771C440C551C661C52
:1022E000771C440C551C661C771C440C551C661C42
:1022F000771C440C551C661C771C982F9F77492A25
:1023000087FDDACFDA014D925D926D927C92139740
:10231000A70131968ACF87E00E948D3EB0EE4B2A0E
:1023200055245A94652C762CC4CFB98CDD24D394D3
:102330000ECB8601E7CFCF84D8888F89988D4091C6
:102340002702442331F0F901E850FD4FE491E0FF0A
:1023500011C024503D4FF90125913491F90119958F
:102360000FB6F894DEBE0FBECDBE08151905E8F60F
:10237000F80121CF809128021F928F93E2E6F6E0C8
:10238000FF93EF930E94F3320FB6F894DEBE0FBEB8
:10239000CDBEEBCF85E00E948D3E1B2DCDCA0F93A5
:1023A0001F93CF93DF938C0180913F029091400265
:1023B000892B09F04BC060913E0270E062307105DC
:1023C0002CF482E080933E0262E070E0E0913A02F9
:1023D000F0913B024DB75EB741505F4F44275A958D
:1023E0009F01C0E0D0E0C901860F971F4817590729
:1023F00030F121969C01C115A4E0DA07A1F78E1BEC
:102400009F0B0E94D032D0934002C0933F02909322
:102410003D0280933C020E940E2AF8018081918146
:10242000A281B3818093410290934202A093430220
:10243000B0934402DF91CF911F910F91089520979F
:1024400011F0C901DCCF80E10E948D3E8DE00E9439
:102450008D3ECF932091380230913902232B91F495
:10246000FC01C0818C2F90E0880F991F880F991F65
:102470000E94D0329093390280933802C093370281
:10248000CF9108958AE00E948D3E80913F02909105
:1024900040029F938F9321E030912702311101C0B8
:1024A00020E01F922F93209144022F93209143020A
:1024B0002F93209142022F93209141022F9321E0EC
:1024C000892B09F420E01F922F9384E496E09F93D8
:1024D0008F930E94F3328DB79EB70C960FB6F89487
:1024E0009EBF0FBE8DBF089546E050E066EA72E1E0
:1024F000FC0180810C94C729CF92DF92FF920F9349
:102500001F93CF93DF93EC0166EA72E18C810E9406
:10251000F6296C01F8840F2D10E0A8014D5F5F4F84
:102520006CE772E188810E94C729FC01D182C082D8
:10253000F2826C857D85A8010396DF91CF911F9172
:102540000F91FF90DF90CF900C940940FF920F9372
:102550001F93CF93DF938C0146E050E066EA72E16F
:10256000FC0180810E94C729EC01F801F08461E040
:10257000F11060E0F80184810E94222D6A837B8340
:102580008C838D81F11009C091E0892B8D83DF91BF
:10259000CF911F910F91FF90089599E0892B8D8322
:1025A000DF91CF911F910F91FF9008958BE10E94D1
:1025B0008D3E8F929F92AF92BF92FF920F931F9387
:1025C000CF93DF93EC0166EA72E188810E94F629DD
:1025D0008C01F88483E08F1508F484C0F8018581AC
:1025E000867009F07FC08C849D84AE84BF848C810A
:1025F0009D81AE81BF81892B8A2B8B2B09F074C002
:10260000EAE2F1E1A591B49111968C9180FD04C0AC
:1026100060E088E00E94222D60E089E00E94222D87
:1026200060E08AE00E94222D60E08BE00E94171794
:1026300080E58CBD1DBC8114F2E19F06FAE7AF0670
:10264000B10408F041C0811489E098068DE3A80622
:10265000B10418F5E0E88E16E4E89E06EEE1AE0659
:10266000B104C0F5F0E48F16F2E49F06FFE0AF0678
:10267000B10468F580E2881681EA980687E0A8062A
:10268000B10458F590E0E0E98E16E0ED9E06E3E037
:10269000AE06B10428F583E002C090E080E0CF2DC3
:1026A000CC0FCC0FC065C82BF801C0839183858106
:1026B00084608583DF91CF911F910F91FF90BF9030
:1026C000AF909F908F90089591E080E0E8CF90E0E8
:1026D00081E0E5CF91E081E0E2CF91E082E0DFCFE1
:1026E00082E0DDCF0E94D6128EE20E948D3E6F9274
:1026F0007F928F929F92AF92BF92CF92DF92EF9292
:10270000FF920F931F93CF93DF934C01E62E142F6C
:102710006901DC0115967C901597872D867009F468
:1027200051C071FC39C0F401908181819CBD8DBD87
:10273000F72DF1706F2E70FCC8C0EE2009F49CC01C
:102740008FEF810F112351F0F60190819EBD0DB4E2
:1027500007FEFDCF9EB591938150B8F7662091F1A9
:10276000072D069506950695402F40954170D4019A
:1027700012966D917D918C91DF91CF911F910F9168
:10278000FF90EF90DF90CF90BF90AF909F908F9091
:102790007F906F900C945017ED91FC9141854270A1
:1027A0006681778180850E945017B72DB1706B2E9E
:1027B00070FC17C0D401CD91DC91AA24AA94A10E7B
:1027C000111126C0DF91CF911F910F91FF90EF90D3
:1027D000DF90CF90BF90AF909F908F907F906F9041
:1027E0000895072D069506950695402F4170F40132
:1027F0006281738184810E945017D401CD91DC9154
:10280000AA24AA94A10E112309F4AECF66246394DE
:10281000B12C8FEFA81AB80AAC0CBD1CD601FC90E5
:1028200008E010E0898580FF35C0EE81FF81888552
:1028300080834F2D40786B817C818D810E94501761
:10284000FF0CEE81FF8188858083110FE881F9817B
:1028500090818A81892391E009F490E0192B01503D
:1028600009F7EE2011F0F6011083FFEFCF1ADF0A0F
:10287000AC14BD0499F672CFF6019601210F311DFB
:102880002E173F0709F46ACF81918EBD0DB407FE64
:10289000FDCFF6CF4F2D40786B817C818D810E94DA
:1028A0005017FF0CEE81FF8188858083110FE8812E
:1028B000F98190818A81892391E009F490E0192BB4
:1028C000EE81FF8188858083CACF73FA442740F95F
:1028D000F4016281738184810E945017662463949D
:1028E0002CCFCF93DF93EC0166EA72E188810E94DE
:1028F000F629288539854C8160E0DF91CF910C94D1
:102900007713FF920F931F93CF93DF93EC011881FE
:1029100066EA72E1812F0E94F6290C81F884C9854C
:102920002F2D3C2F402F61E00E947713CF93FF9211
:102930001F920F931F921F9381E296E09F938F93B4
:102940000E94F3328DB79EB708960FB6F8949EBFDB
:102950000FBE8DBFDF91CF911F910F91FF90089512
:10296000FC0192899460928B1092260281E0809300
:10297000530280E00895FC011092260281E08093CA
:102980004502818D8160818F448155816681778187
:1029900080859185A285B385840F951FA61FB71FDB
:1029A00084839583A683B78381E008950F931F9353
:1029B000CF93DF938C0168E175E1FC0180810E9477
:1029C000F629EC010E94D63BF80184819581A6810D
:1029D000B7818C839D83AE83BF8380859185A285DB
:1029E000B38588879987AA87BB87892B8A2B8B2BEE
:1029F00029F4DF91CF911F910F91089584859585DA
:102A0000A685B7858C879D87AE87BF87808991898A
:102A1000A289B389888B998BAA8BBB8B84898E8B77
:102A20001F8ACE01DF91CF911F910F910C94283C0A
:102A3000FF920F931F93CF93DF93EC01F88483E011
:102A40008F15E0F04AE150E068E175E188810E946D
:102A5000C7298C018BEB94E1F8019383828366EAAA
:102A600072E18C810E94F629F801958B848BF08E9F
:102A7000DF91CF911F910F91FF90089587E20E94FF
:102A80008D3E8F929F92AF92BF92EF92FF920F93E3
:102A90001F93CF93DF931F921F92CDB7DEB77C01B8
:102AA00060E877E1FC0180810E94F6298C018FEAC1
:102AB00089831A820E94742E4B015C019E012F5F54
:102AC0003F4F42E061E0F801848595850E947713CD
:102AD0000E94742EF80121892F9320892F932A8137
:102AE0002F711F922F9323891F922F9327852F9346
:102AF00026852F93DC01CB0188199909AA09BB0906
:102B0000BF93AF939F938F93BF92AF929F928F92F9
:102B1000F70180811F928F9383E096E09F938F93BC
:102B20000E94F3320FB6F894DEBF0FBECDBF0F90F8
:102B30000F90DF91CF911F910F91FF90EF90BF9079
:102B4000AF909F908F9008958F929F92AF92BF9277
:102B5000CF92EF920F931F93CF93DF93EC01480135
:102B600059011F92EF92BF92AF929F920F937F9362
:102B70006F935F934F931F92CF9289EF95E09F934E
:102B80008F930E94F3328DB79EB70E960FB6F894CE
:102B90009EBF0FBE8DBFE11009C08C859D85AE859F
:102BA000BF8588169906AA06BB0688F48F898F5FB1
:102BB0008F8B9E898917B0F4DF91CF911F910F9170
:102BC000EF90CF90BF90AF909F908F90089588899D
:102BD0009989AA89BB8988159905AA05BB0530F38F
:102BE0001F8AEACF809127028111FACF86E20E94E4
:102BF0008D3ECF92DF92EF92FF926B017C0109C074
:102C00000E94742E292F6C157D058E052F0927FF34
:102C100009C08091BC0087FFF3CFFF90EF90DF9059
:102C2000CF90089580E30E948D3E24EA2093BC005B
:102C30000E94F9158091B90090E0A0E0B0E08031E9
:102C40009105A105B10521F00897A105B10509F489
:102C500008958FE20E948D3E7F928F929F92AF9255
:102C6000BF92CF92DF92EF92FF920F931F93CF9379
:102C7000DF93782EC62F942EB52E822E0E94742EAE
:102C80006B017C0120E8C20E28E3D21E21E0E21E87
:102C9000F11CC701B6010E9415167092BB0084E8B2
:102CA0008093BC00C701B6010E94F915AA24AA941A
:102CB000AC0ECC23B1F0C92DDB2DB12C8FEFA81AAF
:102CC000B80AAC0EBD1E94E8992E89918093BB0082
:102CD0009092BC00C701B6010E94F915AC16BD0662
:102CE000A1F7C701B6010E941516872D8160809358
:102CF000BB0084E88093BC00C701B6010E94F915AF
:102D0000DFEFD80D882009F15801CD2F84EC982EE3
:102D1000CC2369F09092BC00C701B6010E94F9155E
:102D20008091BB00F50181935F01C15099F7F801D3
:102D3000ED0FF11DEF0184E88093BC00C701B601DF
:102D40000E94F9158091BB00888384E98093BC00C0
:102D5000DF91CF911F910F91FF90EF90DF90CF9077
:102D6000BF90AF909F908F907F900895BF92CF9229
:102D7000DF92EF92FF920F931F93CF93DF93D82FA1
:102D8000C62FB42E152F0E94742E6B017C0120E8F3
:102D9000C20E28E3D21E21E0E21EF11CC701B601DB
:102DA0000E941516D093BB0084E88093BC00C70135
:102DB000B6010E94F9150FEF0C0FCC23A9F0CB2D13
:102DC000D12F10E00F5F1F4F0C0F1D1F84E8B82E8E
:102DD00089918093BB00B092BC00C701B6010E94EC
:102DE000F915C017D107A1F784E98093BC00DF91E2
:102DF000CF911F910F91FF90EF90DF90CF90BF90F8
:102E00000895FB012FB7F8949281141644F4982B7F
:102E1000809592839181892381832FBF0895809526
:102E2000982392839181892381832FBF08958036CF
:102E3000A0F567FD32C0E82FE695E695E695F0E04F
:102E4000EE0FFF1FE85DFE4EA591B491109729F19A
:102E5000877021E030E0A90102C0440F551F8A9518
:102E6000E2F7CA014FB7F89412963C911297662385
:102E700081F0382B282F209512963C9312971196AB
:102E80003C911197232311962C9311974FBFBD01AD
:102E90000895282F20953223EFCF8BE20E948D3E9C
:102EA000FB012FB7F8949281411105C080958923C9
:102EB00082832FBF0895892B82832FBF0895FB0142
:102EC0002FB7F8949281411109C0382F3095932380
:102ED00092839181892B81832FBF0895982B9283B0
:102EE0009181892B81832FBF0895FC019289946081
:102EF000928B1092260281E08093460280E0089532
:102F00000F931F93CF93DF938C0145E450E060E86B
:102F100077E1FC0180810E94C729EC0185E797E1F8
:102F20009B838A8366EA72E1F80184810E94F62914
:102F30009D878C87DF91CF911F910F910895CF933B
:102F4000DF93EC0145969F938F938B891F928F930C
:102F50008F858F938E858F931F926F938EEF95E061
:102F60009F938F930E94F3321B8A8E859F850196D3
:102F70009F878E878DB79EB70A960FB6F8949EBF2F
:102F80000FBE8DBFDF91CF910895CF93DF93EC01FA
:102F90006B817C818D8140E00E945F178D859E85CD
:102FA0000E94FD386E817F81888541E00E94011773
:102FB0008D859E850E94FD3869857A858B8541E0E7
:102FC000DF91CF910C9401170F931F93CF93DF9351
:102FD000EC01062F18E01DC06B817C818D8140E0E3
:102FE0000E945F17000F8D859E850E94FD386E81BF
:102FF0007F81888541E00E9401178D859E850E9412
:10300000FD38688179818A8140E00E945F17115004
:1030100049F007FFE1CF69857A858B8541E00E9401
:103020000117E0CF69857A858B8541E00E94011701
:103030008D859E850E94FD386E817F81888541E067
:103040000E940117E985FA8510818B8518238D85EB
:103050009E850E94FD38688179818A8140E00E94C6
:103060005F1769857A858B8541E00E9401171111F0
:1030700005C0DF91CF911F910F91089585E20E94C5
:103080008D3E1F93CF93DF93EC01162F8D859E8588
:103090000E94FD3869857A858B8541E00E94011781
:1030A0006E817F81888541E00E9401178D859E8514
:1030B0000E94FD386B817C818D8140E00E945F170A
:1030C0008D859E850E94FD38688179818A8140E0E6
:1030D0000E945F17612FCE01DF91CF911F910C9459
:1030E000E4170F931F93CF93DF93EC01F8940E94A2
:1030F000742E088519852A853B85DC01CB01800F5C
:10310000911FA21FB31F8C839D83AE83BF83CE010B
:103110000E94283C7894DF91CF911F910F910895E0
:103120009F92AF92BF92CF92DF92EF92FF920F9356
:103130001F93CF93DF93CDB7DEB729970FB6F894DF
:10314000DEBF0FBECDBF8C01962E9E012F5F3F4F7D
:1031500087E0F90111928A95E9F78FEA8887198645
:1031600088EA8983F801C388D12C7601F5E1EF0E56
:10317000F11CE00EF11E47E061E0F80184859585C1
:103180000E9477139E01285F3F4F42E061E0F80103
:10319000848595850E9477138985F82FFF73AF2E5C
:1031A0008074B82EF801EC0DFD1D8A81858B8B8112
:1031B000F70181838C8182838D8183838E818483D7
:1031C0008F818583F80183898A5F838B8B3270F5C9
:1031D000BB2031F0F801808991890196918B808B19
:1031E000A11004C0F8018489882329F1F80182899B
:1031F00081FF0AC0C8010E94D63BF80182898B7FFB
:10320000828BC8010E94711829960FB6F894DEBF10
:103210000FBECDBFDF91CF911F910F91FF90EF9027
:10322000DF90CF90BF90AF909F900895692DC80117
:103230000E949F17CDCF1092260281E08093460214
:10324000E3CF4F925F926F927F928F929F92AF9255
:10325000BF92DF92EF92FF920F931F93CF93DF9372
:1032600000D01F92CDB7DEB77C01FC01D08060E8B2
:1032700077E18D2D0E94F6298C01F70180859185DB
:10328000A285B385892B8A2B8B2BB1F1C8010E94B3
:10329000D63BF70184819581A681B781F8018483AB
:1032A0009583A683B783F70180859185A285B38531
:1032B000F80180879187A287B38781E0828B118A8A
:1032C000108A17861686138A148AC8010E94283C21
:1032D0000F900F900F900F90DF91CF911F910F9152
:1032E000FF90EF90DF90BF90AF909F908F907F9076
:1032F0006F905F904F900895C8010E94D63BF801EF
:10330000128A81E0848B6D2DC8010E9490188EE294
:103310008B831C820E94742E2B013C019E012D5F29
:103320003F4F42E060E0F801848595850E94771365
:103330000E94742E4B015C018FEA89831A829E01E0
:103340002F5F3F4F42E061E0F801848595850E9440
:1033500077138A818F71F82EF8018389882331F0E1
:103360006D2DC8010E949F17F8018389F80191898A
:103370009F9390899F931F92FF921F928F938785AF
:103380008F9386858F93D501C40184199509A60969
:10339000B709BF93AF939F938F937F926F925F9282
:1033A0004F921F92DF9283E096E09F938F930E944B
:1033B000F3320FB6F894DEBF0FBECDBF89CF9F9218
:1033C000AF92BF92CF92DF92EF92FF920F931F9333
:1033D000CF93DF93EC01C62E942ED52EB22E78011A
:1033E0006C85862F8160A82EC11085C06A2DCE0104
:1033F0000E9441188FEF8B0DBB2009F46EC067014E
:10340000C80ED11C69857A858B8541E00E94011721
:1034100008E010E08D859E850E94FD386E817F81D9
:10342000888541E00E9401178D859E850E94FD38A8
:10343000110FE985FA8590818B85892391E009F444
:1034400090E0192B688179818A8140E00E945F17A2
:10345000015001F769857A858B8541E00E9401174B
:10346000CE14DF04F1F06B817C818D8140E00E94FD
:103470005F178D859E850E94FD386E817F818885CE
:1034800041E00E9401178D859E850E94FD3868816C
:1034900079818A8140E00E945F17F70111937F01D3
:1034A000B1CF69857A858B8541E00E9401178D85B2
:1034B0009E850E94FD386E817F81888541E00E9453
:1034C00001178D859E850E94FD38688179818A81EA
:1034D00040E00E945F17F6011083CE01DF91CF918B
:1034E0001F910F91FF90EF90DF90CF90BF90AF9022
:1034F0009F900C94C517CE010E944118092D1D2DD7
:10350000CA94D12CEFEFCE1ADE0AC00ED11EF801FC
:1035100061918F01CE010E94E417C016D106B9F760
:1035200065CFDF92EF92FF920F931F93CF93DF93BC
:103530007C01C62FD42E152FFC0164850E944118F2
:103540000FEF0C0FCC2371F0CD2DD12F10E00F5FBA
:103550001F4F0C0F1D1F6991C7010E94E417C01770
:10356000D107C9F7C701DF91CF911F910F91FF904C
:10357000EF90DF900C94C5178EE10E948D3E0F9363
:103580001F93CF93DF93FC01A189B2898D919C9108
:103590001197928B818B16968D919C911797C08570
:1035A000D185228521113FC02FB7F894AC01552752
:1035B000598348832FBF20914702309148021196CA
:1035C0003C932E93B0934802A0934702A189B289FD
:1035D000109759F5278530898217930741F0838525
:1035E0009485A585B6850097A105B10531F480E0E5
:1035F000DF91CF911F910F9108954481558166818C
:103600007781840F951FA61FB71F84839583A68398
:10361000B7838CEB9AE19383828381E0DF91CF9132
:103620001F910F9108958883C6CF12964D915D9199
:103630006D917C911597278530898217930741F00A
:1036400083859485A585B6850097A105B10551F4BC
:10365000448355836683778381E0DF91CF911F9107
:103660000F9108950481158126813781800F911F64
:10367000A21FB31F2B2F84179507A607270B27FF21
:10368000E7CF8DE10E948D3EEF92FF920F931F9343
:10369000CF93DF937C016EEB7BE1DC018C910E9488
:1036A000F6298C010E94722AEC01F7018481958130
:1036B000A681B7818A839B83AC83BD8380859185F6
:1036C0009F838E83F89419821882D80151968D9128
:1036D0009C915297892BB9F15396ED91FC91549797
:1036E000D183C0835496DC93CE93539780E090E0CF
:1036F0007894892B39F4DF91CF911F910F91FF902E
:10370000EF900895C8010E94D63BD80112968D9182
:103710009C9113978C5B9A41F1F08A819B81AC81DB
:10372000BD812FEB3AE1F8013383228384839583B3
:10373000A683B783C801DF91CF911F910F91FF90AE
:10374000EF900C94283CF801D48BC38BD28BC18BA7
:1037500081E090E0CDCF8A819B81AC81BD81F80171
:103760004481558166817781272F481759076A0759
:103770002B0B27FFD6CF8DE10E948D3ECF92DF929B
:10378000EF92CF93DF93EC01488559856A857B855D
:103790002C858C810E942B2C6B01E82E45E150E09A
:1037A0006EEB7BE188810E94C729FC01C086D1862F
:1037B000E28688899989908B87878C899D89AE89D3
:1037C000BF8983879487A587B6878FEB9AE1938318
:1037D000828368E070E0CF014196DF91CF91EF9056
:1037E000DF90CF900C94582A0F931F93CF93DF93C1
:1037F0008C0163E87CE1FC0180810E94F629EC01E8
:103800000E94D63B909100028A8D981303C08FEFDF
:1038100080930002F80184819581A681B781888B0D
:10382000998BAA8BBB8B8C839D83AE83BF83808552
:103830009185A285B3858C879D87AE87BF87848558
:103840008E8F91E0980F9D8F40895189628973898D
:10385000488759876A877B87248935893F8B2E8BD8
:10386000208D318D398F288F948D9C8F811105C0CB
:10387000DF91CF911F910F910895CE01DF91CF91EC
:103880001F910F910C94283CEF92FF920F931F937E
:10389000CF93DF938C0161E77CE1FC0180810E9482
:1038A000F629EC01F8948E8980FF13C07E01F8E0C0
:1038B000EF0EF11CC7010E94D63BF801848195816F
:1038C000A681B7818C879D87AE87BF87C7010E947D
:1038D000283C7894DF91CF911F910F91FF90EF904A
:1038E000089549E150E061E77CE1FC0180810E949C
:1038F000C7292AE735E2FC013383228325E935E233
:10390000338722870895CF93DC0114969C911497F6
:1039100020E030E0C22FF901EC57FA4FE4919E17F6
:1039200041F02F5F3F4F20313105A1F78DE20E941A
:103930008D3E87E980937A002830E8F420917E005C
:1039400081E090E00C2E01C0880F0A94EAF7822BE8
:1039500080937E004FE150E063E87CE18C910E940F
:10396000C729FC0189EC9CE193838283C28F81E0AB
:10397000858FCF91089520917D003C2F377081E095
:1039800090E001C0880F3A95EAF7822B80937D0082
:10399000E1CFFC0180917A0086FF0EC08481958181
:1039A000A681B7818853984FAF4FBF4F84839583CB
:1039B000A683B78381E00895828D909100029817C5
:1039C00081F09F3F59F780930002982F9870909351
:1039D0007B008770806480937C0087ED80937A0001
:1039E000DDCF8FEF80930002209178003091790035
:1039F000858D968D891780F544895589240F351F4B
:103A00008F5F358B248B858F891760F18689978925
:103A100028173907C8F1808D918D82179307A0F17F
:103A2000138E1092260281E080934A0240895189C8
:103A30006289738980859185A285B385840F951FDE
:103A4000A61FB71F808B918BA28BB38B848395832A
:103A5000A683B78381E0089581E0358B248B858F21
:103A60008917A0F644815581668177818485958583
:103A7000A685B785840F951FA61FB71F84839583DE
:103A8000A683B78381E00895838D8F5F838F948DA4
:103A9000891738F2809127028111C2CF8AE10E94F2
:103AA0008D3E1F93CF93DF93EC01162FAC89BD8918
:103AB0001097B9F01296ED91FC9113978D919C910E
:103AC00011979D8B8C8B11961C921E9213961C92B3
:103AD0001E921297612FCD011995AC89BD8910975F
:103AE00049F71092260281E080934902DF91CF913D
:103AF0001F910895EF92FF921F93CF93DF937C0164
:103B0000FC01108161E77CE1812F0E94F629EC0124
:103B1000F8948E8980FF09C0F70164816F8B8A7FDA
:103B200084608E8BCE010E94511DCE010E94D63B37
:103B3000CE0108960E94D63B1E8A8F8978941F92E8
:103B40001F921F921F921F928F931F921F921F927C
:103B50001F938BE296E09F938F930E94F3328DB771
:103B60009EB70C960FB6F8949EBF0FBE8DBFDF9127
:103B7000CF911F91FF90EF900895CF93DF93EC01C9
:103B80000E94D63BCE0108960E94D63BEC89FD8967
:103B9000309751F0908181811382128211821082BC
:103BA000E92FF82F3097B1F71D8A1C8A188E1F8ACB
:103BB0001E8ADF91CF9108950F931F93CF93DF93C8
:103BC0008C0161E77CE1FC0180810E94F629EC0117
:103BD000F8940E94BD1D81E08E8BF801848195814F
:103BE000A681B7818C839D83AE83BF8380859185B9
:103BF000A285B385888B998BAA8BBB8B892B8A2B4B
:103C00008B2B19F0CE010E94283CF8018485888F07
:103C10007894DF91CF911F910F910895FC018089D5
:103C200082FD19C08460808B1092260281E080930F
:103C30004B02448155816681778180859185A2857B
:103C4000B385840F951FA61FB71F84839583A68312
:103C5000B78381E0089584898F5F848BE5CFFF92DD
:103C60000F931F93CF93DF93EC01F88483E08F15BC
:103C700008F145E450E06FE27EE188810E94C729A7
:103C80008C018EE09EE1F8019383828366EA72E103
:103C90008C810E94F629F80195878487FC01858133
:103CA00080FF0BC0F801F18ADF91CF911F910F9136
:103CB000FF90089589E20E948D3E88E20E948D3E29
:103CC000CF93DF93EC0145969F938F938A891F9240
:103CD0008F938F858F938E858F931F926F9380EE36
:103CE00095E09F938F930E94F3321A8A8E859F8569
:103CF00001969F878E878DB79EB70A960FB6F89468
:103D00009EBF0FBE8DBFDF91CF910895FF920F939D
:103D10001F93CF93DF938C01FC01F0806FE27EE173
:103D20008F2D0E94F629EC010E94D63B188AF801DB
:103D300080859185A285B385892B8A2B8B2B01F5F4
:103D40008A89811118C08F858F938E858F931F92DA
:103D5000FF9285EE95E09F938F930E94F3320F9030
:103D60000F900F900F900F900F90DF91CF911F91B8
:103D70000F91FF9008956F2DCE010E94601EE3CF3A
:103D8000F80184819581A681B7818C839D83AE8360
:103D9000BF8380859185A285B38588879987AA8707
:103DA000BB871F861E861A8A84858B8BCE01DF9186
:103DB000CF911F910F91FF900C94283CCF93DF93EC
:103DC000EC016A8D662309F453C0FC0150E031E038
:103DD00020E0A38DB48D4C91958D942309F0532B45
:103DE0002F5F330F33962613F4CF2C85922F952710
:103DF00029F08D85852780959823D9F4888D5D8756
:103E000087FD03C0815070F1888F4C815D816E8188
:103E10007F8188859985AA85BB85840F951FA61FFC
:103E2000B71F8C839D83AE83BF8381E0DF91CF91E9
:103E30000895982F909529238523822B8C879E8522
:103E40009830E0F621E0290F2E87FE01E90FF11DE1
:103E500087871092260281E080934C028FEF888F33
:103E60005D87D3CF1092260291E090934C02CCCF85
:103E700050E0BBCF0F931F93CF93DF938C0167E785
:103E80007FE1FC0180810E94F629EC010E94D63B73
:103E9000F80184819581A681B7818C839D83AE834F
:103EA000BF834085518562857385488759876A87B6
:103EB0007B8780898D878C871E861F8A8EEF888FEF
:103EC0008485898F87FD10C0452B462B472B29F40D
:103ED000DF91CF911F910F910895CE01DF91CF9186
:103EE0001F910F910C94283C8FE10E948D3ECF933F
:103EF000FC01C481C930B8F44C2F50E09A01220F64
:103F0000331F420F531F455E5F4F67E77FE1FC01A0
:103F100080810E94C729FC01C28F2EED3EE13383D0
:103F20002283CF91089581E20E948D3E0F931F93CB
:103F3000CF93DF938C0167E77FE1DC018C910E94D6
:103F4000F629FC01D80114969C91828D9817B8F43B
:103F5000292F30E0E901CC0FDD1F2C0F3D1FEF01B1
:103F6000C20FD31FF801648580850E9417176B8FDD
:103F70007C8F8D8FDF91CF911F910F91089580E2FB
:103F80000E948D3EFC0144815581668177812085A8
:103F900080810C942B2CFC0196899460968B109256
:103FA000260281E080934D0280E008950F931F93D5
:103FB000CF93DF938C0148E450E066ED7FE1FC0194
:103FC00080810E94C729EC018BEC9FE19B838A834F
:103FD00060E77BE2F80184810E94F6299D878C8747
:103FE000DF91CF911F910F9108954F925F926F9241
:103FF0007F928F929F92AF92BF92CF92DF92EF9279
:10400000FF920F931F93CF93DF9300D0CDB7DEB70E
:104010006C0166ED7FE1DC018C910E94F6297C0148
:104020000E94742E4B015C0182E78B83D7011C96A2
:10403000ED91FC911D978E010F5F1F4F22E0AE01A5
:104040004D5F5F4F61E080810E942C160E94742EAC
:104050002B013C0189818F718983F70181898F93BD
:1040600080898F9324893589ABEABAEA0E94923F0E
:1040700096958795969587959F938F9387891F929D
:104080008F9387858F9386858F93D301C20188197B
:104090009909AA09BB09BF93AF939F938F93BF92CE
:1040A000AF929F928F92D6018C911F928F938BED3E
:1040B00095E09F938F930E94F3320FB6F894DEBF82
:1040C0000FBECDBF0F900F900F90DF91CF911F913A
:1040D0000F91FF90EF90DF90CF90BF90AF909F90A7
:1040E0008F907F906F905F904F9008957F928F9206
:1040F0009F92AF92BF92CF92DF92EF92FF920F9377
:104100001F93CF93DF937C01DC01DC916FE27EE1B2
:104110008D2F0E94F6298C01F701C481B084A184FF
:10412000DC0151969C90B2E09B1609F44FC00E94AE
:10413000742E6B017C012B2D3A2D4C2F61E0D801A0
:104140001C968D919C911D970E9477130E94742E4E
:104150008B019C010C191D092E093F0901321340E6
:104160002105310558F54C2F50E0E1E09E1659F13C
:10417000AF92BF925F934F93FF92EF92DF92CF92F5
:104180001F92DF938AEE95E09F938F930E94F33204
:104190008DB79EB70C960FB6F8949EBF0FBE8DBF1D
:1041A000DF91CF911F910F91FF90EF90DF90CF9013
:1041B000BF90AF909F908F907F90089540E050E027
:1041C000E1E09E12D5CF6B017C01D2CFDC011C96C1
:1041D000ED91FC911D9794808280738040E0682D62
:1041E000772D892D0E9450170E94742E6B017C013F
:1041F000B0E1CB0ED11CE11CF11C0E94742E2F2DBE
:10420000C616D706E806290B27FFF7CFF89441E03A
:10421000682D772D892D0E9450170E94742E6B01F6
:104220007C0178942B2D3A2D4C2F61E0F801848588
:1042300095850E9477134C2F50E09ACF0F931F93D0
:10424000CF93DF93EC01F8940E94742E08851985B2
:104250002A853B85DC01CB01800F911FA21FB31F74
:104260008C839D83AE83BF83CE010E94283C7894CB
:10427000DF91CF911F910F910895CF93DF93EC01C0
:1042800048969F938F938F891F928F938F858F93DB
:104290008E858F931F926F9386ED95E09F938F93FA
:1042A0000E94F3321F8A8E859F8501969F878E8795
:1042B0008DB79EB70A960FB6F8949EBF0FBE8DBFFE
:1042C000DF91CF9108954F925F926F927F928F927C
:1042D0009F92AF92BF92DF92EF92FF920F931F9344
:1042E000CF93DF9300D01F92CDB7DEB78C01DC01F6
:1042F000DC9066ED7FE18D2D0E94F6297C01F801AE
:1043000080859185A285B385892B8A2B8B2BC9F15A
:10431000C7010E94D63BF80184819581A681B781AF
:10432000F70184839583A683B783F80180859185FF
:10433000A285B385F70180879187A287B38781E043
:10434000868B17861686118A108A178A138A128A14
:10435000158A148AC7010E94283C0F900F900F9075
:104360000F90DF91CF911F910F91FF90EF90DF9011
:10437000BF90AF909F908F907F906F905F904F9085
:104380000895C7010E94D63BD70156961C9283E23E
:1043900089831A820E94742E4B015C01D7011C96FE
:1043A000ED91FC911D97AE014F5F5F4F62E0808100
:1043B0000E94B6160E94742E2B013C018AE38C8366
:1043C000D7011C96ED91FC911D978E010D5F1F4F3B
:1043D00021E0AE014C5F5F4F61E080810E942C16AE
:1043E0008B8184FD48C0D70157968C91882321F09A
:1043F0006D2DC7010E943D21B7016E5E7F4FF70111
:10440000848595850E94A92ED70151962C915197AC
:104410002F9350962C912F939C01ABEABAEA0E94FD
:10442000923F96958795969587959F938F93F701E1
:1044300087891F928F9387858F9386858F93D3016A
:10444000C20188199909AA09BB09BF93AF939F9329
:104450008F93BF92AF929F928F921F92DF928BEDBC
:1044600095E09F938F930E94F3320FB6F894DEBFCE
:104470000FBECDBF72CFF701808991890196918BD4
:10448000808BB1CFCF92DF92EF92FF92CF93DF93E9
:10449000FC01A085B18582858C93968581E0892772
:1044A0008687C82FC170C688D788E08CF18C978525
:1044B0009F5FD1899D1708F05FC0892F86958695EB
:1044C0008695DF01A80FB11D5A962C9130E0892FF7
:1044D000877002C0359527958A95E2F72170B7015C
:1044E000A601C217A9F033C0892F869586958695B7
:1044F000DF01A80FB11D5A962C9130E0892F8770EB
:1045000002C0359527958A95E2F72170C2131FC026
:104510004C0D5D1D6E1D7F1D9F5F9D1728F387E36A
:1045200095E29383828384819581A681B781480F28
:10453000591F6A1F7B1F448355836683778381E0FD
:10454000DF91CF91FF90EF90DF90CF900895978704
:1045500084819581A681B781480F591F6A1F7B1FEF
:10456000448355836683778381E0DF91CF91FF9009
:10457000EF90DF90CF900895B701A601D0CF6F9252
:104580007F928F92CF92DF92EF92FF92CF93DF9341
:10459000EC0160E08C810E94222D3B01882EC884B2
:1045A000D984EA84FB84D7FC24C0A601415F5F4F15
:1045B0006FEB72E288810E94C729FC0160827182E0
:1045C0008282D686C5868C859D85948383838889DF
:1045D0009989AA89BB8981879287A387B487DF914C
:1045E000CF91FF90EF90DF90CF908F907F906F9062
:1045F000089584E20E948D3ECF92DF92EF92FF9267
:104600000F931F93CF93DF93EC01E885F9858A859B
:1046100080830E94742E3E8521E023272E872F85DC
:104620002F5F2F87213009F45CC02530E0F40C8126
:104630001D812E813F814A895B896C897D89DB01DF
:10464000CA01800F911FA21FB31F8C839D83AE836D
:10465000BF8381E0DF91CF911F910F91FF90EF9089
:10466000DF90CF900895CC80DD80EE80FF80AB019D
:10467000BC014C195D096E097F098E899F89A88D3F
:10468000B98D481B590B6A0B7B0BDB01CA010296E3
:10469000A11DB11DB7FD34C0B595A7959795879518
:1046A000B595A795979587950A891B892C893D898A
:1046B000800F911FA21FB31F8E8B9F8BA88FB98F66
:1046C00022E432E23B832A834C0D5D1D6E1D7F1D6B
:1046D000840F951FA61FB71F8C839D83AE83BF8356
:1046E000B8CF0C811D812E813F81AB01BC01401BE5
:1046F000510B620B730B4E8B5F8B688F798F9BCF47
:10470000DB01CA010596A11DB11DC6CFEF92FF9234
:104710000F931F93CF93DF937C0167E274E2FC0158
:1047200080810E94F629EC011E8511FF07C0DF91F0
:10473000CF911F910F91FF90EF900895F7010481A1
:1047400060857185F4840B3008F045C0FAE0FF15F0
:1047500008F441C0402F50E04A960E9409401F864D
:10476000117312601E87802F880F880F880F898B26
:10477000FF0CFF0CFF0CF88A002349F08A8D8F7321
:104780008A3229F48CEF92E29B838A830CC08A8957
:104790009B89AC89BD898E8B9F8BA88FB98F82E452
:1047A00092E29B838A83F8940E94742EDC01CB01F1
:1047B0008058934FAF4FBF4F8C839D83AE83BF8391
:1047C000CE010E94283C7894DF91CF911F910F91E8
:1047D000FF90EF90089582E20E948D3E0F931F9309
:1047E000CF93DF938C0167E77FE1DC018C910E941E
:1047F000F629EC01D8011496EC918F898E0F8F8BDE
:10480000F8948E85E817D0F48E1BF0E03F96EC0FFD
:10481000FD1FDE011F962FEF280F30E0205F3F4F76
:104820002C0F3D1F91919D93A217B307D9F78E8747
:104830007894DF91CF911F910F9108951E868EEF8E
:10484000888F7894DF91CF911F910F9108957F9277
:104850008F929F92AF92BF92CF92DF92EF92FF9290
:104860000F931F93CF93DF93EC0144E250E067E294
:1048700074E288810E94C7298C0178848C809D8095
:10488000AE80BF80CC84DD84EE84FF8461E0711053
:1048900001C060E0882D0E941717F80163877487B4
:1048A000858761E08C2D0E94222DF8016087718739
:1048B000828788899989AA89BB89828B938BA48BEB
:1048C000B58B711018C091E08C149D04AE04BF0428
:1048D000C1F080E0892BF8018687DF91CF911F918D
:1048E0000F91FF90EF90DF90CF90BF90AF909F908F
:1048F0008F907F90089591E18C149D04AE04BF04C5
:1049000041F780E2E7CFCF93DF93EC018E8585FD01
:104910000DC0688579858A8541E00E9450178E8593
:10492000807381608E87DF91CF9108956885798546
:104930008A8541E00E945F178E85807381608E8733
:10494000DF91CF910895CF93DF93FC01A385B485C8
:104950005C918785982F977021E030E001C0220F8D
:104960009A95EAF7982F969596959695DF01A90F57
:10497000B11D5A969C915A9745854523E1F0292B04
:104980005A962C938F5F90898917E8F48787448122
:1049900055816681778186899789A08DB18D840F35
:1049A000951FA61FB71F84839583A683B78381E0D5
:1049B000DF91CF910895209529235A962C938F5FEC
:1049C0009089891718F3EF01CF010E9483248E8507
:1049D00088608E871092260281E080934E0280E0EC
:1049E000DF91CF910895CF93DF93FC01A385B48528
:1049F0009C9185858923E9F08685846086878785F3
:104A000091E0980F9787803408F54481558166813D
:104A1000778186899789A08DB18D840F951FA61FF8
:104A2000B71F84839583A683B78381E0DF91CF91FD
:104A30000895868582FFE3CF178683EA94E2938305
:104A40008283CF01DF91CF910C94A324EF01108AD0
:104A5000CF010E9483248E8588608E871092260263
:104A600081E080934E0280E0DF91CF9108951F9303
:104A7000CF93DF93EC011889112369F14E8545FD31
:104A800023C01F8683EF94E29B838A838E899F894C
:104A9000A88DB98D880F991FAA1FBB1F880F991F5A
:104AA000AA1FBB1F4C815D816E817F81840F951F82
:104AB000A61FB71F8C839D83AE83BF8311E0812F18
:104AC000DF91CF911F91089540716B857C858D8515
:104AD0000E940117D6CF0E9483248E8588608E871E
:104AE0001092260281E080934E02812FDF91CF91B8
:104AF0001F910895FC0186898460868B109226029E
:104B000081E0809349024481558166817781808963
:104B10009189A289B389840F951FA61FB71F84832B
:104B20009583A683B78381E00895FC013897968921
:104B300090FF08C0608D678B9A7F9460968BCF0141
:104B40000E94511D80E00895FC01A085B1859C91D3
:104B500082858923D1F0818D80958170C9F4838D00
:104B6000815031F1838F44815581668177818785BA
:104B70009089A189B289840F951FA61FB71F8483CE
:104B80009583A683B78381E00895818D817039F381
:104B90008FEE95E29383828383899489A589B68970
:104BA00084839583A683B783828D838F81E0089564
:104BB000A789B08D56969C915697892F817090FF4A
:104BC000E3CF648D57966C9357979A7F946056966F
:104BD0009C935697CD010E94511D80E008950F933C
:104BE0001F93FC01A085B1859C91048115812681CC
:104BF00037814385548565857685400F511F621F37
:104C0000731F8285892361F0818D8095817059F0B1
:104C1000448355836683778381E01F910F910895C4
:104C2000818D8170A9F7438B548B658B768B84EAD9
:104C300095E293838283CF011F910F910C94A42559
:104C4000CF93FC01C08162E976E28C2F0E94F629A5
:104C5000FC01F894818D338944895589668978945B
:104C6000A085B1852C919285922321E009F420E062
:104C70001F922F936F935F934F933F93869581700D
:104C80001F928F931F92CF9380E396E09F938F9311
:104C90000E94F3328DB79EB70C960FB6F8949EBF64
:104CA0000FBE8DBFCF910895CF93FC01C08162EC00
:104CB00079E38C2F0E94F629FC01F89480A191A140
:104CC000A2A1B3A124A5468557856089718924FDD9
:104CD00004C07695679557954795841B950BA60B51
:104CE000B70BB7FF07C0B095A095909581959F4FE2
:104CF000AF4FBF4F7894B054BF93AF939F938F93B0
:104D00001F92CF9385E396E09F938F930E94F33297
:104D10008DB79EB708960FB6F8949EBF0FBE8DBF95
:104D2000CF9108950F931F93CF93DF93EC014DE143
:104D300050E062E976E288810E94C7298C0168858B
:104D40008C810E941717F801608771878287DF9135
:104D5000CF911F910F9108950F931F93CF93DF93DE
:104D60008C0162E976E2FC0180810E94F629EC0167
:104D70000E94D63BF80184819581A681B7818C83FE
:104D80009D83AE83BF8380859185A285B3858F8700
:104D9000988BA98BBA8B84858A8F882361F1F8015F
:104DA00040895189628973894B875C876D877E87CB
:104DB0002FEE35E23B832A838B8F84899589A689E0
:104DC000B789892B8A2B8B2BA1F482E0898F61E72D
:104DD0007CE1F801808D0E94F629988F8F8BF80175
:104DE000848D8C8FCE01DF91CF911F910F910C9408
:104DF000283C83E0EBCF188E1F8A198EDF91CF916C
:104E00001F910F9108950F931F93CF93DF938C0100
:104E1000EC01A897CE010E94D63B1C821D821E8207
:104E20001F821A8A1B8A1C8A1D8A88A199A1AAA19D
:104E3000BBA12CA54E855F856889798924FD04C0B6
:104E40007695679557954795841B950BA60BB70BE1
:104E5000B7FD40C0B095A095909581959F4FAF4FFD
:104E6000BF4F88A399A3AAA3BBA31E861F86188A37
:104E7000198A247128602CA76D8D7E8D8F8D40E05E
:104E80000E9450174CA544706A8D7B8D8C8D0E94BA
:104E90005017D8011497ED91FC9111973097A9F014
:104EA000409147029091480201C0F901208131816F
:104EB00040839183F0934802E09347024E2F9F2F47
:104EC0002115310591F71D921C92DF91CF911F9111
:104ED0000F910895B095A095909581959F4FAF4FF4
:104EE000BF4FB8CF0F931F93CF93DF938C0162EC2A
:104EF00079E3FC0180810E94F629EC0161E77CE105
:104F0000F80184810E94F629BE01685D7F4F4FB78A
:104F1000F8942AA53BA5232B89F423E037E23BA78D
:104F20002AA7FC012489358939A728A7758B648BAA
:104F30004FBFDF91CF911F910F91089589E10E949A
:104F40008D3E0F931F93FC01A489B58986898C93AC
:104F500093A181E0892783A344815581668177816C
:104F600080FF12C00085118522853385400F511FB7
:104F7000621F731F82FD12C044835583668377834B
:104F800081E01F910F910895048515852685378549
:104F9000400F511F621F731F82FFEECF00891189DE
:104FA00022893389872F401751076207830B87FDBA
:104FB000E3CF85E098E293838283B901A80144831B
:104FC00055836683778381E01F910F91089508953B
:104FD000FC018081A481B5814085518562857385FE
:104FE0009FB7F894813061F0823019F04C939FBFE5
:104FF00008954D935D936D937C9313979FBF089590
:1050000011965C934E939FBF08958F929F92AF929B
:10501000BF92CF92DF92EF92FF921F93CF93DF93D5
:10502000EC01EF8CF8A0E114F10409F4F0C0F701F1
:105030008081918198A38F8F86809780A084B1848E
:1050400011E081149104A104B10409F4A1C06C8998
:105050007D898E89412F0E9450178091470290913F
:105060004802F70191838083F0924802E092470260
:1050700081149104A104B104E9F08B8D9C8DAD8D58
:10508000BE8D88169906AA06BB06A0F44F89588DD6
:10509000698D7A8D411551056105710509F45BC073
:1050A0008C819D81AE81BF81480F591F6A1F7B1F74
:1050B000166022C08BA131E081149104A104B104D7
:1050C00009F068C084FB992790F921E092273917ED
:1050D00009F443C04F89588D698D7A8D411551056A
:1050E00061057105D1F18C819D81AE81BF81480F31
:1050F000591F6A1F7B1F1460EF8DF8A1309709F0CC
:1051000077C02BA1488B598B6A8B7B8B2071212B0D
:105110002BA311FF5FC0880D991DAA1DBB1D12FD99
:1051200052C021EA37E23B832A838C839D83AE837E
:10513000BF8388869986AA86BB868B8D9C8DAD8D14
:10514000BE8D88199909AA09BB098C879D87AE87EE
:10515000BF8781E011C012608BA1EF8DF8A130975D
:10516000D9F4188A198A1A8A1B8A8071812B8BA319
:10517000812F827011FD34C0DF91CF911F91FF907C
:10518000EF90DF90CF90BF90AF909F908F90089559
:1051900010E05DCF30E096CF42815381648175810C
:1051A000488B598B6A8B7B8B8071912F9460892BF4
:1051B0008BA311FF0FC08C819D81AE81BF81880DB3
:1051C000991DAA1DBB1D2B2F84179507A607270B1A
:1051D00027FDA7CF4C835D836E837F8381E0CCCF97
:1051E00040E050E0BA018C819D81AE81BF8193CFB8
:1051F000C280D380E480F580872F4C155D056E0555
:105200008F0987FD07C08BA1B701A601C9CF85E132
:105210000E948D3E83E10E948D3EFC0185818F932B
:1052200084818F9380811F928F938FE396E09F9369
:105230008F930E94F3320F900F900F900F900F906A
:105240000F900895DC012C911496ED91FC91159727
:105250003FB7F8942130E9F02230B1F0808190E03E
:10526000A0E0B0E03FBFBF93AF939F938F938AE3DB
:1052700096E09F938F930E94F3320F900F900F90C0
:105280000F900F900F90089580819181A281B3813A
:10529000E9CF80819181A0E0B0E0E4CFCF92DF92AE
:1052A000EF92FF92FC0140815181628173812481E0
:1052B000E4E2F1E185919591A591B49148175907E0
:1052C0006A077B0770F56A017B01C20ED11CE11CE5
:1052D000F11C8C159D05AE05BF0500F5841B90E003
:1052E0009A012459394F3F932F939F938F937F9324
:1052F0006F935F934F9388E596E09F938F930E94FF
:10530000F3328DB79EB70A960FB6F8949EBF0FBEC4
:105310008DBFFF90EF90DF90CF900895822F90E0A7
:10532000DFCF80E090E0DCCF80912702882329F056
:10533000823011F010922702089582E00E948D3E83
:105340008EE00E948D3ECF93DF93EC0198814091D7
:105350003702A0913802B09139020BC0FD0184E000
:10536000989FE00DF11D1124208131812617370708
:1053700041F09F5F941790F380E090E0DF91CF9130
:105380000895988382819381DF91CF910895CF937F
:10539000DF9390913702891730F5C82FD0E0CC0FFA
:1053A000DD1FCC0FDD1FE0913802F0913902EC0FC8
:1053B000FD1F80819181892BB1F480913F029091F2
:1053C0004002892B81F471836083CA010E94D0322C
:1053D0002091380230913902C20FD31F9B838A83F8
:1053E000DF91CF9108958BE00E948D3E909137021E
:1053F000891788F4E0913802F091390294E0899F8E
:10540000E00DF11D1124808191818617970719F411
:105410008281938108958CE00E948D3ECF92DF922D
:10542000EF92FF92CF93DF93C0913F02D091400261
:105430002097B9F121976E01E12CF12CA0913E0249
:10544000B0E02097D9F020E030E040E050E0BA0131
:1054500080913C0290913D02FC01E20FF31F4F5FEF
:105460005F4F6F4F7F4F2A0F3B1F820F931F918318
:1054700080834C155D056E057F0550F380913C02DD
:1054800090913D02CA9FF001CB9FF00DDA9FF00D85
:105490001124E80FF91F1182108290934802809323
:1054A0004702DF91CF91FF90EF90DF90CF9008956A
:1054B000FC0113821282118210826F3F710509F084
:1054C0007CF480913F0290914002892B49F48091B5
:1054D0003E0290E08617970714F460933E02089509
:1054E0000E94A0292FB7F89480914702909148021A
:1054F000009749F0FC01408151815093480240934C
:1055000047022FBF08958FE00E948D3ECF93DF9317
:10551000EC0160E77BE288810E94F6296C81488576
:105520005985FC01238120FD06C0FC018081DF91AB
:10553000CF910C94B61681819281DF91CF910C941A
:10554000911A2F923F924F925F926F927F928F9219
:105550009F92AF92BF92CF92DF92EF92FF920F9302
:105560001F93CF93DF9300D000D0CDB7DEB78C016F
:105570002DB73EB73D832C8360E77BE2DC018C9145
:105580000E94F6299A838983F801F481FB83D8016C
:1055900018968D909C9019971C964D905D906D90EB
:1055A0007C901F9740FC99C07694679457944794D9
:1055B000F801E088F188C42CD12CFB810F2F10E07A
:1055C000C8018C0D9D1D2DB73EB7281B390B0FB69A
:1055D000F8943EBF0FBE2DBF8DB79EB701965C01FC
:1055E000A981BA8113963C90A801B4010E94094098
:1055F000B32DB170BE8330FE53C01501200E311E95
:105600008101242DA4016B81E981FA81818192813C
:105610000E94DF19C114D10409F453C0A6014E0D34
:105620005F1DF10120E030E0D7018D917D01809573
:10563000908189238083DA019D91AD01892B81932B
:105640002F5F3F4F2C153D057CF3BE81B11139C052
:105650006B81640DA501E981FA8180810E94B616F3
:105660002C813D810FB6F8943EBF0FBE2DBF26960C
:105670000FB6F894DEBF0FBECDBFDF91CF911F9163
:105680000F91FF90EF90DF90CF90BF90AF909F90E1
:105690008F907F906F905F904F903F902F900895E4
:1056A0001501200E311E8101242DA4016B81E98199
:1056B000FA8180810E942C16C114D10409F0AECF6A
:1056C000C7CF6B81640DA501A981BA8111968D9117
:1056D0009C9112970E94911AC3CF8CE10E948D3E3B
:1056E00044E050E060E77BE2FC0180810C94C72934
:1056F000AF92BF92CF92DF92EF92FF920F931F93E0
:10570000CF93DF93CDB7DEB77C01ADB6BEB6FC015B
:10571000C08060E77BE28C2D0E94F629F70164814E
:1057200040855185D4842DB73EB72D1931090FB668
:10573000F8943EBF0FBE2DBFEDB7FEB731967F0187
:10574000FC012381870120FD2AC02D2DFC018081D1
:105750000E942C16FF92EF921F92DF921F92CF921F
:105760008CE196E09F938F930E94F3322DB73EB762
:10577000285F3F4F0FB6F8943EBF0FBE2DBF0FB648
:10578000F894BEBE0FBEADBEDF91CF911F910F91B9
:10579000FF90EF90DF90CF90BF90AF9008952D2DA8
:1057A000818192810E94DF19D5CF8F929F92AF9213
:1057B000BF92FF920F931F93CF93DF938C01FC0155
:1057C00084858F77F82E60E77BE280810E94F6293E
:1057D000EC01F80184819581A681B781892B8A2B00
:1057E0008B2BB1F58091BC0082FF10C08F2D880FEC
:1057F00088838B8182608B83DF91CF911F910F9182
:10580000FF90BF90AF909F908F900895F801808493
:105810009184A284B38461E089E10E94222D61E039
:1058200088E10E94222D1092B900F0E88F16FAE16B
:105830009F06F6E0AF06B10438F488E48093B80020
:1058400084E08093BC00D2CF8CE08093B800F8CF86
:1058500081E30E948D3ECF92DF92EF92FF921F93E1
:10586000CF93DF936A017B0160E471E1FB019491C6
:10587000981749F0675F7F4FF1E1603D7F07B1F70F
:1058800084E30E948D3EFB013896949191FF1AC0EB
:1058900030EAC3163FE5D306E104F10408F483C0FF
:1058A000C0E8CC16CEE7DC06C1E0EC06F10408F057
:1058B00090C0D0E4CD16DFEBDD06E104F104C8F4BE
:1058C00014E022C0F8EBCF16F7E4DF06E104F104A0
:1058D00090F0A0ECCA16AEE3DA06A1E0EA06F10405
:1058E00008F475C0C114BBEFDB06B4E0EB06F104AD
:1058F00038F315E009C037EFC31638E0D306E104EA
:10590000F10408F05FC011E0FB013396A591B4915A
:10591000FB013596C591D491FB0137963491E82F60
:10592000E695E695E695F0E0EE0FFF1FE85DFE4E8A
:10593000459154918770E1E0F0E07F0101C0EE0CE9
:105940008A95EAF7FB013196C590D490892F817032
:10595000A038B10509F44BC0EFB7F894988197705F
:1059600011F0191341C0188381112EC09FB7F8940C
:10597000622F70E0E601798368839FBF9C9131605C
:10598000392B3C93DA0111969C911197E92A1196D3
:10599000EC92EFBFB601DF91CF911F91FF90EF9096
:1059A000DF90CF900895A8EDCA16A7E2DA06E104C9
:1059B000F10468F4B7EFCB16B8E0DB06E104F104BC
:1059C00008F4A1CF12E0A0CFE6012883D7CF13E0DF
:1059D0009BCFC114EBEFDE06E4E0EE06F10410F419
:1059E00016E092CF17E090CF82E30E948D3E83E3D2
:1059F0000E948D3EB0990FC080914F02909150024D
:105A0000019610920602109205029093080280936C
:105A1000070281E0089581E086BB80914F0290915A
:105A2000500201969093500280934F0220E030E89C
:105A30003093060220930502909308028093070298
:105A400081E00895803678F5E82FE695E695E695AD
:105A5000F0E0EE0FFF1FE85DFE4EA591B4911097A8
:105A600011F1877021E030E0A90102C0440F551FF9
:105A70008A95E2F7CA013FB7F89412962C911297D3
:105A800061110FC04095242312962C931297119602
:105A90002C911197282B11962C9311973FBFBD0184
:105AA0000895242BF1CF8CE20E948D3E1F920F921D
:105AB0000FB60F9211240BB60F92EF92FF920F9335
:105AC0001F932F933F934F935F936F937F938F9386
:105AD0009F93AF93BF93CF93DF93EF93FF930DC04B
